{
  "contractName": "LeaderSystem",
  "abi": [
    {
      "constant": true,
      "inputs": [
        {
          "name": "",
          "type": "uint8"
        }
      ],
      "name": "leaderBonuses",
      "outputs": [
        {
          "name": "",
          "type": "uint256"
        }
      ],
      "payable": false,
      "stateMutability": "view",
      "type": "function"
    },
    {
      "constant": true,
      "inputs": [],
      "name": "leadersCount",
      "outputs": [
        {
          "name": "",
          "type": "uint8"
        }
      ],
      "payable": false,
      "stateMutability": "view",
      "type": "function"
    },
    {
      "constant": true,
      "inputs": [
        {
          "name": "",
          "type": "uint256"
        }
      ],
      "name": "leaders",
      "outputs": [
        {
          "name": "timestampEnd",
          "type": "uint256"
        },
        {
          "name": "duration",
          "type": "uint256"
        },
        {
          "name": "minSum",
          "type": "uint256"
        }
      ],
      "payable": false,
      "stateMutability": "view",
      "type": "function"
    },
    {
      "anonymous": false,
      "inputs": [
        {
          "indexed": false,
          "name": "_indexTable",
          "type": "uint256"
        },
        {
          "indexed": false,
          "name": "_addr",
          "type": "address"
        },
        {
          "indexed": false,
          "name": "_index",
          "type": "uint256"
        },
        {
          "indexed": false,
          "name": "_sum",
          "type": "uint256"
        }
      ],
      "name": "NewLeader",
      "type": "event"
    },
    {
      "anonymous": false,
      "inputs": [
        {
          "indexed": false,
          "name": "_indexTable",
          "type": "uint256"
        }
      ],
      "name": "LeadersClear",
      "type": "event"
    },
    {
      "constant": true,
      "inputs": [
        {
          "name": "_indexTable",
          "type": "uint256"
        }
      ],
      "name": "getLeadersTableInfo",
      "outputs": [
        {
          "name": "",
          "type": "uint256"
        },
        {
          "name": "",
          "type": "uint256"
        },
        {
          "name": "",
          "type": "uint256"
        }
      ],
      "payable": false,
      "stateMutability": "view",
      "type": "function"
    },
    {
      "constant": true,
      "inputs": [
        {
          "name": "_indexTable",
          "type": "uint256"
        }
      ],
      "name": "getLeaders",
      "outputs": [
        {
          "name": "",
          "type": "address[]"
        },
        {
          "name": "",
          "type": "uint256[]"
        }
      ],
      "payable": false,
      "stateMutability": "view",
      "type": "function"
    }
  ],
  "bytecode": "0x608060405234801561001057600080fd5b50610401806100206000396000f30060806040526004361061006c5763ffffffff7c010000000000000000000000000000000000000000000000000000000060003504166302ceb8b381146100715780633eb1137e1461009e5780634db2a711146100d4578063930efb7114610185578063a36e6577146101b0575b600080fd5b34801561007d57600080fd5b5061008c60ff600435166101c8565b60408051918252519081900360200190f35b3480156100aa57600080fd5b506100b66004356101da565b60408051938452602084019290925282820152519081900360600190f35b3480156100e057600080fd5b506100ec60043561024f565b604051808060200180602001838103835285818151815260200191508051906020019060200280838360005b83811015610130578181015183820152602001610118565b50505050905001838103825284818151815260200191508051906020019060200280838360005b8381101561016f578181015183820152602001610157565b5050505090500194505050505060405180910390f35b34801561019157600080fd5b5061019a61039f565b6040805160ff9092168252519081900360200190f35b3480156101bc57600080fd5b506100b66004356103a4565b60006020819052908152604090205481565b60008060006001848154811015156101ee57fe5b90600052602060002090600502016000015460018581548110151561020f57fe5b90600052602060002090600502016001015460018681548110151561023057fe5b9060005260206000209060050201600201549250925092509193909250565b60608060006060600060018681548110151561026757fe5b9060005260206000209060050201925082600301805490506040519080825280602002602001820160405280156102a8578160200160208202803883390190505b509150600090505b60038301548110156103255782600401600084600301838154811015156102d357fe5b600091825260208083209091015473ffffffffffffffffffffffffffffffffffffffff168352820192909252604001902054825183908390811061031357fe5b602090810290910101526001016102b0565b82600301828180548060200260200160405190810160405280929190818152602001828054801561038c57602002820191906000526020600020905b815473ffffffffffffffffffffffffffffffffffffffff168152600190910190602001808311610361575b5050505050915094509450505050915091565b600781565b60018054829081106103b257fe5b6000918252602090912060059091020180546001820154600290920154909250835600a165627a7a72305820bff0c971564b30cc375827fc00398bb326494e08cbb06cc9f3265b92e012d7090029",
  "source": "pragma solidity ^0.4.24;\n\nimport \"./Math.sol\";\nimport \"./SafeMath.sol\";\n\ncontract LeaderSystem {\n    using SafeMath for uint256;\n\n    event NewLeader(uint256 _indexTable, address _addr, uint256 _index, uint256 _sum);\n    event LeadersClear(uint256 _indexTable);\n\n    uint8 public constant leadersCount = 7;\n    mapping (uint8 => uint256) public leaderBonuses;\n\n    struct LeadersTable {\n        uint256 timestampEnd;              // timestamp of closing table\n        uint256 duration;                   // duration compute\n        uint256 minSum;                     // min sum of leaders\n        address[] leaders;                  // leaders array\n        mapping (address => uint256) users; // sum all users\n    }\n\n    LeadersTable[] public leaders;\n\n    function setupLeaderSystemModule() internal {\n        leaderBonuses[0] = 10;  // 10%\n        leaderBonuses[1] = 7;   // 7%\n        leaderBonuses[2] = 5;   // 5%\n        leaderBonuses[3] = 3;   // 3%\n        leaderBonuses[4] = 1;   // 1%\n        leaderBonuses[5] = 0;   // 0%\n        leaderBonuses[6] = 0;   // 0%\n\n        leaders.push(LeadersTable(now + 86400, 86400, 0, new address[](0)));\n        leaders.push(LeadersTable(now + 604800, 604800, 0, new address[](0)));\n        leaders.push(LeadersTable(now + 77760000, 77760000, 0, new address[](0)));\n        leaders.push(LeadersTable(now + 31536000, 31536000, 0, new address[](0)));\n    }\n\n    function _clearLeadersTable(uint256 _indexTable) internal {\n        LeadersTable storage _leader = leaders[_indexTable];\n        leaders[_indexTable] = LeadersTable(_leader.timestampEnd + _leader.duration, _leader.duration, 0, new address[](0));\n\n        emit LeadersClear(_indexTable);\n    }\n\n    function quickSort(LeadersTable storage leader, int left, int right) internal {\n        int i = left;\n        int j = right;\n        if (i == j) return;\n        uint pivot = leader.users[leader.leaders[uint(left + (right - left) / 2)]];\n        while (i <= j) {\n            while (leader.users[leader.leaders[uint(i)]] > pivot) i++;\n            while (pivot > leader.users[leader.leaders[uint(j)]]) j--;\n            if (i <= j) {\n                (leader.leaders[uint(i)], leader.leaders[uint(j)]) = (leader.leaders[uint(j)], leader.leaders[uint(i)]);\n                i++;\n                j--;\n            }\n        }\n        if (left < j)\n            quickSort(leader, left, j);\n        if (i < right)\n            quickSort(leader, i, right);\n    }\n\n    function _updateLeadersTable(uint256 i, address _addr, uint256 _value) internal {\n        if (now > leaders[i].timestampEnd) _clearLeadersTable(i);\n\n        LeadersTable storage leader = leaders[i];\n        bool isExist = leader.users[_addr] >= leader.minSum;\n\n        uint256 oldSum = leader.users[_addr];\n        uint256 newSum = oldSum.add(_value);\n        leader.users[_addr] = newSum;\n\n        if (newSum < leader.minSum && leader.leaders.length == leadersCount) return;\n\n        if (!isExist || leader.leaders.length == 0) leader.leaders.push(_addr);\n\n        if (leader.leaders.length > 1) quickSort(leader, 0, int256(leader.leaders.length - 1));\n        if (leader.leaders.length > leadersCount) {\n            delete leader.leaders[leadersCount - 1];\n        }\n\n        leader.minSum = leader.users[leader.leaders[leader.leaders.length - 1]];\n    }\n\n    function _updateLeaders(address _addr, uint256 _value) internal {\n        for (uint i = 0; i < leaders.length; i++) {\n            _updateLeadersTable(i, _addr, _value);\n        }\n    }\n\n    function getLeadersTableInfo(uint256 _indexTable) public view returns(uint256, uint256, uint256) {\n        return (leaders[_indexTable].timestampEnd, leaders[_indexTable].duration, leaders[_indexTable].minSum);\n    }\n\n    function getLeaders(uint256 _indexTable) public view returns(address[], uint256[]) {\n        LeadersTable storage leader = leaders[_indexTable];\n        uint256[] memory balances = new uint256[](leader.leaders.length);\n\n        for (uint i = 0; i < leader.leaders.length; i++) {\n            balances[i] = leader.users[leader.leaders[i]];\n        }\n\n        return (leader.leaders, balances);\n    }\n\n}",
  "sourcePath": "/Users/alexey/Projects/DApps/MyMillions/contracts/LeaderSystem.sol",
  "compiler": {
    "name": "solc",
    "version": "0.4.24+commit.e67f0147.Emscripten.clang"
  },
  "schemaVersion": "2.0.1",
  "updatedAt": "2018-12-09T13:26:41.437Z"
}