{
  "contractName": "Math",
  "abi": [
    {
      "constant": false,
      "inputs": [
        {
          "name": "a",
          "type": "uint256"
        },
        {
          "name": "b",
          "type": "uint256"
        }
      ],
      "name": "max",
      "outputs": [
        {
          "name": "",
          "type": "uint256"
        }
      ],
      "payable": false,
      "stateMutability": "nonpayable",
      "type": "function"
    },
    {
      "constant": false,
      "inputs": [
        {
          "name": "a",
          "type": "uint256"
        },
        {
          "name": "b",
          "type": "uint256"
        }
      ],
      "name": "min",
      "outputs": [
        {
          "name": "",
          "type": "uint256"
        }
      ],
      "payable": false,
      "stateMutability": "nonpayable",
      "type": "function"
    }
  ],
  "bytecode": "0x60f961002f600b82828239805160001a6073146000811461001f57610021565bfe5b5030600052607381538281f3007300000000000000000000000000000000000000003014608060405260043610605f5763ffffffff7c01000000000000000000000000000000000000000000000000000000006000350416636d5433e6811460645780637ae2b5c714608e575b600080fd5b818015606f57600080fd5b50607c60043560243560a6565b60408051918252519081900360200190f35b818015609957600080fd5b50607c60043560243560be565b60008183111560b557508160b8565b50805b92915050565b60008183101560b557508160b85600a165627a7a72305820097256fdd8d9cb20557dfd7009261ce12cd799861e527bf1ed1d077610cb033b0029",
  "source": "pragma solidity ^0.4.24;\n\nlibrary Math {\n    function max(uint a, uint b) returns (uint) {\n        if (a > b) return a;\n        else return b;\n    }\n    function min(uint a, uint b) returns (uint) {\n        if (a < b) return a;\n        else return b;\n    }\n}\n",
  "sourcePath": "/Users/alexey/Projects/DApps/MyMillions/contracts/Math.sol",
  "compiler": {
    "name": "solc",
    "version": "0.4.24+commit.e67f0147.Emscripten.clang"
  },
  "schemaVersion": "2.0.1",
  "updatedAt": "2018-12-09T13:26:41.440Z"
}