{
  "contractName": "Ownable",
  "abi": [
    {
      "constant": true,
      "inputs": [],
      "name": "marketersPercent",
      "outputs": [
        {
          "name": "",
          "type": "uint256"
        }
      ],
      "payable": false,
      "stateMutability": "view",
      "type": "function"
    },
    {
      "constant": true,
      "inputs": [],
      "name": "developers",
      "outputs": [
        {
          "name": "",
          "type": "address"
        }
      ],
      "payable": false,
      "stateMutability": "view",
      "type": "function"
    },
    {
      "constant": true,
      "inputs": [],
      "name": "developersPercent",
      "outputs": [
        {
          "name": "",
          "type": "uint256"
        }
      ],
      "payable": false,
      "stateMutability": "view",
      "type": "function"
    },
    {
      "constant": true,
      "inputs": [],
      "name": "marketers",
      "outputs": [
        {
          "name": "",
          "type": "address"
        }
      ],
      "payable": false,
      "stateMutability": "view",
      "type": "function"
    },
    {
      "constant": true,
      "inputs": [],
      "name": "owner",
      "outputs": [
        {
          "name": "",
          "type": "address"
        }
      ],
      "payable": false,
      "stateMutability": "view",
      "type": "function"
    },
    {
      "inputs": [],
      "payable": false,
      "stateMutability": "nonpayable",
      "type": "constructor"
    },
    {
      "anonymous": false,
      "inputs": [
        {
          "indexed": true,
          "name": "previousOwner",
          "type": "address"
        },
        {
          "indexed": true,
          "name": "newOwner",
          "type": "address"
        }
      ],
      "name": "OwnershipTransferred",
      "type": "event"
    },
    {
      "anonymous": false,
      "inputs": [
        {
          "indexed": true,
          "name": "previousDevelopers",
          "type": "address"
        },
        {
          "indexed": true,
          "name": "newDevelopers",
          "type": "address"
        }
      ],
      "name": "DevelopersChanged",
      "type": "event"
    },
    {
      "anonymous": false,
      "inputs": [
        {
          "indexed": true,
          "name": "previousMarketers",
          "type": "address"
        },
        {
          "indexed": true,
          "name": "newMarketers",
          "type": "address"
        }
      ],
      "name": "MarketersChanged",
      "type": "event"
    },
    {
      "constant": false,
      "inputs": [
        {
          "name": "newOwner",
          "type": "address"
        }
      ],
      "name": "transferOwnership",
      "outputs": [],
      "payable": false,
      "stateMutability": "nonpayable",
      "type": "function"
    },
    {
      "constant": false,
      "inputs": [
        {
          "name": "newDevelopers",
          "type": "address"
        }
      ],
      "name": "setDevelopers",
      "outputs": [],
      "payable": false,
      "stateMutability": "nonpayable",
      "type": "function"
    },
    {
      "constant": false,
      "inputs": [
        {
          "name": "newMarketers",
          "type": "address"
        }
      ],
      "name": "setMarketers",
      "outputs": [],
      "payable": false,
      "stateMutability": "nonpayable",
      "type": "function"
    }
  ],
  "bytecode": "0x608060405260018054600160a060020a0319908116730c05ae835f26a8d4a89ae80c7a0e5495e5361ca1179091556002805490911673e222dd2dd012fcac0256b1f3830cc033418b688917905534801561005857600080fd5b5060008054600160a060020a031916331790556103af8061007a6000396000f30060806040526004361061008d5763ffffffff7c01000000000000000000000000000000000000000000000000000000006000350416630f3fc08781146100925780632bc31ca4146100b957806339347d52146100ea5780633a0339151461010d57806342583c02146101225780638ab476bf146101375780638da5cb5b14610158578063f2fde38b1461016d575b600080fd5b34801561009e57600080fd5b506100a761018e565b60408051918252519081900360200190f35b3480156100c557600080fd5b506100ce610193565b60408051600160a060020a039092168252519081900360200190f35b3480156100f657600080fd5b5061010b600160a060020a03600435166101a2565b005b34801561011957600080fd5b506100a7610237565b34801561012e57600080fd5b506100ce61023c565b34801561014357600080fd5b5061010b600160a060020a036004351661024b565b34801561016457600080fd5b506100ce6102e0565b34801561017957600080fd5b5061010b600160a060020a03600435166102ef565b600e81565b600154600160a060020a031681565b600054600160a060020a031633146101b957600080fd5b600160a060020a03811615156101ce57600080fd5b600254604051600160a060020a038084169216907f5650bc3484c51d95070941164495fa61356f571133f65393510e90fa461118fc90600090a36002805473ffffffffffffffffffffffffffffffffffffffff1916600160a060020a0392909216919091179055565b600181565b600254600160a060020a031681565b600054600160a060020a0316331461026257600080fd5b600160a060020a038116151561027757600080fd5b600154604051600160a060020a038084169216907f7d28dbfe9b3b0a2416f60ca7bc6f6cd19d476b00cec731d9c37ac02a09613d7390600090a36001805473ffffffffffffffffffffffffffffffffffffffff1916600160a060020a0392909216919091179055565b600054600160a060020a031681565b600054600160a060020a0316331461030657600080fd5b600160a060020a038116151561031b57600080fd5b60008054604051600160a060020a03808516939216917f8be0079c531659141344cd1fd0a4f28419497f9722a3daafe3b4186f6b6457e091a36000805473ffffffffffffffffffffffffffffffffffffffff1916600160a060020a03929092169190911790555600a165627a7a7230582045d5bdc26bd7bf8bf318e559eca9c9c5808fe63357f648623836e704035bde950029",
  "source": "pragma solidity ^0.4.24;\n\ncontract Ownable {\n    address public owner;\n    address public developers = 0x0c05aE835f26a8d4a89Ae80c7A0e5495e5361ca1;\n    address public marketers = 0xE222Dd2DD012FCAC0256B1f3830cc033418B6889;\n    uint256 public constant developersPercent = 1;\n    uint256 public constant marketersPercent = 14;\n\n    event OwnershipTransferred(address indexed previousOwner, address indexed newOwner);\n    event DevelopersChanged(address indexed previousDevelopers, address indexed newDevelopers);\n    event MarketersChanged(address indexed previousMarketers, address indexed newMarketers);\n\n    function Ownable() public {\n        owner = msg.sender;\n    }\n\n    modifier onlyOwner() {\n        require(msg.sender == owner);\n        _;\n    }\n\n    modifier onlyThisOwner(address _owner) {\n        require(owner == _owner);\n        _;\n    }\n\n    function transferOwnership(address newOwner) public onlyOwner {\n        require(newOwner != address(0));\n        emit OwnershipTransferred(owner, newOwner);\n        owner = newOwner;\n    }\n\n    function setDevelopers(address newDevelopers) public onlyOwner {\n        require(newDevelopers != address(0));\n        emit DevelopersChanged(developers, newDevelopers);\n        developers = newDevelopers;\n    }\n\n    function setMarketers(address newMarketers) public onlyOwner {\n        require(newMarketers != address(0));\n        emit MarketersChanged(marketers, newMarketers);\n        marketers = newMarketers;\n    }\n\n}\n",
  "sourcePath": "/Users/alexey/Projects/DApps/MyMillions/contracts/Ownable.sol",
  "compiler": {
    "name": "solc",
    "version": "0.4.24+commit.e67f0147.Emscripten.clang"
  },
  "schemaVersion": "2.0.1",
  "updatedAt": "2018-12-09T13:26:41.478Z"
}